{"abi":[{"inputs":[],"stateMutability":"nonpayable","type":"constructor"},{"inputs":[],"name":"admin","outputs":[{"internalType":"address","name":"","type":"address"}],"stateMutability":"view","type":"function"},{"inputs":[{"internalType":"string[]","name":"candidateNameList","type":"string[]"},{"internalType":"uint256","name":"numberOfTokens","type":"uint256"}],"name":"createElection","outputs":[],"stateMutability":"nonpayable","type":"function"},{"inputs":[{"internalType":"uint256","name":"","type":"uint256"}],"name":"deployedElections","outputs":[{"internalType":"address","name":"","type":"address"}],"stateMutability":"view","type":"function"},{"inputs":[],"name":"getDeployedElections","outputs":[{"internalType":"address[]","name":"","type":"address[]"}],"stateMutability":"view","type":"function"},{"inputs":[{"internalType":"uint256","name":"numberOfTokens","type":"uint256"}],"name":"mintTokens","outputs":[],"stateMutability":"nonpayable","type":"function"}],"evm":{"bytecode":{"linkReferences":{},"object":"608060405234801561001057600080fd5b5033600160006101000a81548173ffffffffffffffffffffffffffffffffffffffff021916908373ffffffffffffffffffffffffffffffffffffffff160217905550611a47806100616000396000f3fe60806040523480156200001157600080fd5b50600436106200005e5760003560e01c806397304ced1462000063578063ca3065941462000083578063e09eba5814620000a5578063f18b4f8e14620000c5578063f851a44014620000fb575b600080fd5b6200008160048036038101906200007b91906200046d565b6200011d565b005b6200008d620001b3565b6040516200009c9190620005a1565b60405180910390f35b620000c36004803603810190620000bd919062000823565b62000243565b005b620000e36004803603810190620000dd91906200046d565b620003aa565b604051620000f291906200089a565b60405180910390f35b62000105620003ea565b6040516200011491906200089a565b60405180910390f35b600160009054906101000a900473ffffffffffffffffffffffffffffffffffffffff1673ffffffffffffffffffffffffffffffffffffffff163373ffffffffffffffffffffffffffffffffffffffff1614620001b0576040517f08c379a0000000000000000000000000000000000000000000000000000000008152600401620001a7906200093e565b60405180910390fd5b50565b606060008054806020026020016040519081016040528092919081815260200182805480156200023957602002820191906000526020600020905b8160009054906101000a900473ffffffffffffffffffffffffffffffffffffffff1673ffffffffffffffffffffffffffffffffffffffff1681526020019060010190808311620001ee575b5050505050905090565b600160009054906101000a900473ffffffffffffffffffffffffffffffffffffffff1673ffffffffffffffffffffffffffffffffffffffff163373ffffffffffffffffffffffffffffffffffffffff1614620002d6576040517f08c379a0000000000000000000000000000000000000000000000000000000008152600401620002cd906200093e565b60405180910390fd5b600082600160009054906101000a900473ffffffffffffffffffffffffffffffffffffffff166040516200030a9062000410565b6200031792919062000ac3565b604051809103906000f08015801562000334573d6000803e3d6000fd5b5090506000819080600181540180825580915050600190039060005260206000200160009091909190916101000a81548173ffffffffffffffffffffffffffffffffffffffff021916908373ffffffffffffffffffffffffffffffffffffffff160217905550620003a5826200011d565b505050565b60008181548110620003bb57600080fd5b906000526020600020016000915054906101000a900473ffffffffffffffffffffffffffffffffffffffff1681565b600160009054906101000a900473ffffffffffffffffffffffffffffffffffffffff1681565b610f1a8062000af883390190565b6000604051905090565b600080fd5b600080fd5b6000819050919050565b620004478162000432565b81146200045357600080fd5b50565b60008135905062000467816200043c565b92915050565b60006020828403121562000486576200048562000428565b5b6000620004968482850162000456565b91505092915050565b600081519050919050565b600082825260208201905092915050565b6000819050602082019050919050565b600073ffffffffffffffffffffffffffffffffffffffff82169050919050565b6000620004f882620004cb565b9050919050565b6200050a81620004eb565b82525050565b60006200051e8383620004ff565b60208301905092915050565b6000602082019050919050565b600062000544826200049f565b620005508185620004aa565b93506200055d83620004bb565b8060005b838110156200059457815162000578888262000510565b975062000585836200052a565b92505060018101905062000561565b5085935050505092915050565b60006020820190508181036000830152620005bd818462000537565b905092915050565b600080fd5b6000601f19601f8301169050919050565b7f4e487b7100000000000000000000000000000000000000000000000000000000600052604160045260246000fd5b6200061582620005ca565b810181811067ffffffffffffffff82111715620006375762000636620005db565b5b80604052505050565b60006200064c6200041e565b90506200065a82826200060a565b919050565b600067ffffffffffffffff8211156200067d576200067c620005db565b5b602082029050602081019050919050565b600080fd5b600080fd5b600067ffffffffffffffff821115620006b657620006b5620005db565b5b620006c182620005ca565b9050602081019050919050565b82818337600083830152505050565b6000620006f4620006ee8462000698565b62000640565b90508281526020810184848401111562000713576200071262000693565b5b62000720848285620006ce565b509392505050565b600082601f83011262000740576200073f620005c5565b5b813562000752848260208601620006dd565b91505092915050565b6000620007726200076c846200065f565b62000640565b905080838252602082019050602084028301858111156200079857620007976200068e565b5b835b81811015620007e657803567ffffffffffffffff811115620007c157620007c0620005c5565b5b808601620007d0898262000728565b855260208501945050506020810190506200079a565b5050509392505050565b600082601f830112620008085762000807620005c5565b5b81356200081a8482602086016200075b565b91505092915050565b600080604083850312156200083d576200083c62000428565b5b600083013567ffffffffffffffff8111156200085e576200085d6200042d565b5b6200086c85828601620007f0565b92505060206200087f8582860162000456565b9150509250929050565b6200089481620004eb565b82525050565b6000602082019050620008b1600083018462000889565b92915050565b600082825260208201905092915050565b7f4f6e6c79207468652061646d696e2063616e206163636573732074686973206660008201527f756e6374696f6e00000000000000000000000000000000000000000000000000602082015250565b600062000926602783620008b7565b91506200093382620008c8565b604082019050919050565b60006020820190508181036000830152620009598162000917565b9050919050565b600081519050919050565b600082825260208201905092915050565b6000819050602082019050919050565b600081519050919050565b600082825260208201905092915050565b60005b83811015620009c8578082015181840152602081019050620009ab565b83811115620009d8576000848401525b50505050565b6000620009eb826200098c565b620009f7818562000997565b935062000a09818560208601620009a8565b62000a1481620005ca565b840191505092915050565b600062000a2d8383620009de565b905092915050565b6000602082019050919050565b600062000a4f8262000960565b62000a5b81856200096b565b93508360208202850162000a6f856200097c565b8060005b8581101562000ab1578484038952815162000a8f858262000a1f565b945062000a9c8362000a35565b925060208a0199505060018101905062000a73565b50829750879550505050505092915050565b6000604082019050818103600083015262000adf818562000a42565b905062000af0602083018462000889565b939250505056fe60806040523480156200001157600080fd5b5060405162000f1a38038062000f1a8339818101604052810190620000379190620004cb565b806000806101000a81548173ffffffffffffffffffffffffffffffffffffffff021916908373ffffffffffffffffffffffffffffffffffffffff16021790555060005b82518110156200010c576040518060400160405280848381518110620000a557620000a462000531565b5b602002602001015181526020016000815250600260008381526020019081526020016000206000820151816000019080519060200190620000e89291906200011d565b50602082015181600101559050508080620001039062000599565b9150506200007a565b50815160048190555050506200064c565b8280546200012b9062000616565b90600052602060002090601f0160209004810192826200014f57600085556200019b565b82601f106200016a57805160ff19168380011785556200019b565b828001600101855582156200019b579182015b828111156200019a5782518255916020019190600101906200017d565b5b509050620001aa9190620001ae565b5090565b5b80821115620001c9576000816000905550600101620001af565b5090565b6000604051905090565b600080fd5b600080fd5b600080fd5b6000601f19601f8301169050919050565b7f4e487b7100000000000000000000000000000000000000000000000000000000600052604160045260246000fd5b6200023182620001e6565b810181811067ffffffffffffffff82111715620002535762000252620001f7565b5b80604052505050565b600062000268620001cd565b905062000276828262000226565b919050565b600067ffffffffffffffff821115620002995762000298620001f7565b5b602082029050602081019050919050565b600080fd5b600080fd5b600067ffffffffffffffff821115620002d257620002d1620001f7565b5b620002dd82620001e6565b9050602081019050919050565b60005b838110156200030a578082015181840152602081019050620002ed565b838111156200031a576000848401525b50505050565b6000620003376200033184620002b4565b6200025c565b905082815260208101848484011115620003565762000355620002af565b5b62000363848285620002ea565b509392505050565b600082601f830112620003835762000382620001e1565b5b81516200039584826020860162000320565b91505092915050565b6000620003b5620003af846200027b565b6200025c565b90508083825260208201905060208402830185811115620003db57620003da620002aa565b5b835b818110156200042957805167ffffffffffffffff811115620004045762000403620001e1565b5b8086016200041389826200036b565b85526020850194505050602081019050620003dd565b5050509392505050565b600082601f8301126200044b576200044a620001e1565b5b81516200045d8482602086016200039e565b91505092915050565b600073ffffffffffffffffffffffffffffffffffffffff82169050919050565b6000620004938262000466565b9050919050565b620004a58162000486565b8114620004b157600080fd5b50565b600081519050620004c5816200049a565b92915050565b60008060408385031215620004e557620004e4620001d7565b5b600083015167ffffffffffffffff811115620005065762000505620001dc565b5b620005148582860162000433565b92505060206200052785828601620004b4565b9150509250929050565b7f4e487b7100000000000000000000000000000000000000000000000000000000600052603260045260246000fd5b7f4e487b7100000000000000000000000000000000000000000000000000000000600052601160045260246000fd5b6000819050919050565b6000620005a6826200058f565b91507fffffffffffffffffffffffffffffffffffffffffffffffffffffffffffffffff821415620005dc57620005db62000560565b5b600182019050919050565b7f4e487b7100000000000000000000000000000000000000000000000000000000600052602260045260246000fd5b600060028204905060018216806200062f57607f821691505b60208210811415620006465762000645620005e7565b5b50919050565b6108be806200065c6000396000f3fe608060405234801561001057600080fd5b50600436106100885760003560e01c8063b13c744b1161005b578063b13c744b14610115578063d28178d714610146578063e2ba53f014610164578063f851a4401461018257610088565b80630121b93f1461008d57806342169e48146100a9578063a3ec138d146100c7578063a9a981a3146100f7575b600080fd5b6100a760048036038101906100a29190610516565b6101a0565b005b6100b16102cb565b6040516100be9190610552565b60405180910390f35b6100e160048036038101906100dc91906105cb565b6102d1565b6040516100ee9190610613565b60405180910390f35b6100ff6102f1565b60405161010c9190610552565b60405180910390f35b61012f600480360381019061012a9190610516565b6102f7565b60405161013d9291906106c7565b60405180910390f35b61014e6103a3565b60405161015b9190610552565b60405180910390f35b61016c61040a565b60405161017991906106f7565b60405180910390f35b61018a6104b7565b6040516101979190610728565b60405180910390f35b600160003373ffffffffffffffffffffffffffffffffffffffff1673ffffffffffffffffffffffffffffffffffffffff16815260200190815260200160002060009054906101000a900460ff161561022d576040517f08c379a00000000000000000000000000000000000000000000000000000000081526004016102249061078f565b60405180910390fd5b60018060003373ffffffffffffffffffffffffffffffffffffffff1673ffffffffffffffffffffffffffffffffffffffff16815260200190815260200160002060006101000a81548160ff02191690831515021790555060036000815480929190610297906107de565b91905055506002600082815260200190815260200160002060010160008154809291906102c3906107de565b919050555050565b60035481565b60016020528060005260406000206000915054906101000a900460ff1681565b60045481565b600260205280600052604060002060009150905080600001805461031a90610856565b80601f016020809104026020016040519081016040528092919081815260200182805461034690610856565b80156103935780601f1061036857610100808354040283529160200191610393565b820191906000526020600020905b81548152906001019060200180831161037657829003601f168201915b5050505050908060010154905082565b6000806000905060005b6004548110156104055781600260008381526020019081526020016000206001015411156103f257600260008281526020019081526020016000206001015491508092505b80806103fd906107de565b9150506103ad565b505090565b6060600260006104186103a3565b8152602001908152602001600020600001805461043490610856565b80601f016020809104026020016040519081016040528092919081815260200182805461046090610856565b80156104ad5780601f10610482576101008083540402835291602001916104ad565b820191906000526020600020905b81548152906001019060200180831161049057829003601f168201915b5050505050905090565b60008054906101000a900473ffffffffffffffffffffffffffffffffffffffff1681565b600080fd5b6000819050919050565b6104f3816104e0565b81146104fe57600080fd5b50565b600081359050610510816104ea565b92915050565b60006020828403121561052c5761052b6104db565b5b600061053a84828501610501565b91505092915050565b61054c816104e0565b82525050565b60006020820190506105676000830184610543565b92915050565b600073ffffffffffffffffffffffffffffffffffffffff82169050919050565b60006105988261056d565b9050919050565b6105a88161058d565b81146105b357600080fd5b50565b6000813590506105c58161059f565b92915050565b6000602082840312156105e1576105e06104db565b5b60006105ef848285016105b6565b91505092915050565b60008115159050919050565b61060d816105f8565b82525050565b60006020820190506106286000830184610604565b92915050565b600081519050919050565b600082825260208201905092915050565b60005b8381101561066857808201518184015260208101905061064d565b83811115610677576000848401525b50505050565b6000601f19601f8301169050919050565b60006106998261062e565b6106a38185610639565b93506106b381856020860161064a565b6106bc8161067d565b840191505092915050565b600060408201905081810360008301526106e1818561068e565b90506106f06020830184610543565b9392505050565b60006020820190508181036000830152610711818461068e565b905092915050565b6107228161058d565b82525050565b600060208201905061073d6000830184610719565b92915050565b7f416c726561647920766f7465642e000000000000000000000000000000000000600082015250565b6000610779600e83610639565b915061078482610743565b602082019050919050565b600060208201905081810360008301526107a88161076c565b9050919050565b7f4e487b7100000000000000000000000000000000000000000000000000000000600052601160045260246000fd5b60006107e9826104e0565b91507fffffffffffffffffffffffffffffffffffffffffffffffffffffffffffffffff82141561081c5761081b6107af565b5b600182019050919050565b7f4e487b7100000000000000000000000000000000000000000000000000000000600052602260045260246000fd5b6000600282049050600182168061086e57607f821691505b6020821081141561088257610881610827565b5b5091905056fea26469706673582212205f9545acaaa82e2ebe1f5b3322b9a269eeaad1700c04ae8a8989f4b1716d887e64736f6c634300080b0033a26469706673582212203f5cc847a3f9ccb13f142032d441007bf202c41fffb2baf5e61447bc8baa54a664736f6c634300080b0033","opcodes":"PUSH1 0x80 PUSH1 0x40 MSTORE CALLVALUE DUP1 ISZERO PUSH2 0x10 JUMPI PUSH1 0x0 DUP1 REVERT JUMPDEST POP CALLER PUSH1 0x1 PUSH1 0x0 PUSH2 0x100 EXP DUP2 SLOAD DUP2 PUSH20 0xFFFFFFFFFFFFFFFFFFFFFFFFFFFFFFFFFFFFFFFF MUL NOT AND SWAP1 DUP4 PUSH20 0xFFFFFFFFFFFFFFFFFFFFFFFFFFFFFFFFFFFFFFFF AND MUL OR SWAP1 SSTORE POP PUSH2 0x1A47 DUP1 PUSH2 0x61 PUSH1 0x0 CODECOPY PUSH1 0x0 RETURN INVALID PUSH1 0x80 PUSH1 0x40 MSTORE CALLVALUE DUP1 ISZERO PUSH3 0x11 JUMPI PUSH1 0x0 DUP1 REVERT JUMPDEST POP PUSH1 0x4 CALLDATASIZE LT PUSH3 0x5E JUMPI PUSH1 0x0 CALLDATALOAD PUSH1 0xE0 SHR DUP1 PUSH4 0x97304CED EQ PUSH3 0x63 JUMPI DUP1 PUSH4 0xCA306594 EQ PUSH3 0x83 JUMPI DUP1 PUSH4 0xE09EBA58 EQ PUSH3 0xA5 JUMPI DUP1 PUSH4 0xF18B4F8E EQ PUSH3 0xC5 JUMPI DUP1 PUSH4 0xF851A440 EQ PUSH3 0xFB JUMPI JUMPDEST PUSH1 0x0 DUP1 REVERT JUMPDEST PUSH3 0x81 PUSH1 0x4 DUP1 CALLDATASIZE SUB DUP2 ADD SWAP1 PUSH3 0x7B SWAP2 SWAP1 PUSH3 0x46D JUMP JUMPDEST PUSH3 0x11D JUMP JUMPDEST STOP JUMPDEST PUSH3 0x8D PUSH3 0x1B3 JUMP JUMPDEST PUSH1 0x40 MLOAD PUSH3 0x9C SWAP2 SWAP1 PUSH3 0x5A1 JUMP JUMPDEST PUSH1 0x40 MLOAD DUP1 SWAP2 SUB SWAP1 RETURN JUMPDEST PUSH3 0xC3 PUSH1 0x4 DUP1 CALLDATASIZE SUB DUP2 ADD SWAP1 PUSH3 0xBD SWAP2 SWAP1 PUSH3 0x823 JUMP JUMPDEST PUSH3 0x243 JUMP JUMPDEST STOP JUMPDEST PUSH3 0xE3 PUSH1 0x4 DUP1 CALLDATASIZE SUB DUP2 ADD SWAP1 PUSH3 0xDD SWAP2 SWAP1 PUSH3 0x46D JUMP JUMPDEST PUSH3 0x3AA JUMP JUMPDEST PUSH1 0x40 MLOAD PUSH3 0xF2 SWAP2 SWAP1 PUSH3 0x89A JUMP JUMPDEST PUSH1 0x40 MLOAD DUP1 SWAP2 SUB SWAP1 RETURN JUMPDEST PUSH3 0x105 PUSH3 0x3EA JUMP JUMPDEST PUSH1 0x40 MLOAD PUSH3 0x114 SWAP2 SWAP1 PUSH3 0x89A JUMP JUMPDEST PUSH1 0x40 MLOAD DUP1 SWAP2 SUB SWAP1 RETURN JUMPDEST PUSH1 0x1 PUSH1 0x0 SWAP1 SLOAD SWAP1 PUSH2 0x100 EXP SWAP1 DIV PUSH20 0xFFFFFFFFFFFFFFFFFFFFFFFFFFFFFFFFFFFFFFFF AND PUSH20 0xFFFFFFFFFFFFFFFFFFFFFFFFFFFFFFFFFFFFFFFF AND CALLER PUSH20 0xFFFFFFFFFFFFFFFFFFFFFFFFFFFFFFFFFFFFFFFF AND EQ PUSH3 0x1B0 JUMPI PUSH1 0x40 MLOAD PUSH32 0x8C379A000000000000000000000000000000000000000000000000000000000 DUP2 MSTORE PUSH1 0x4 ADD PUSH3 0x1A7 SWAP1 PUSH3 0x93E JUMP JUMPDEST PUSH1 0x40 MLOAD DUP1 SWAP2 SUB SWAP1 REVERT JUMPDEST POP JUMP JUMPDEST PUSH1 0x60 PUSH1 0x0 DUP1 SLOAD DUP1 PUSH1 0x20 MUL PUSH1 0x20 ADD PUSH1 0x40 MLOAD SWAP1 DUP2 ADD PUSH1 0x40 MSTORE DUP1 SWAP3 SWAP2 SWAP1 DUP2 DUP2 MSTORE PUSH1 0x20 ADD DUP3 DUP1 SLOAD DUP1 ISZERO PUSH3 0x239 JUMPI PUSH1 0x20 MUL DUP3 ADD SWAP2 SWAP1 PUSH1 0x0 MSTORE PUSH1 0x20 PUSH1 0x0 KECCAK256 SWAP1 JUMPDEST DUP2 PUSH1 0x0 SWAP1 SLOAD SWAP1 PUSH2 0x100 EXP SWAP1 DIV PUSH20 0xFFFFFFFFFFFFFFFFFFFFFFFFFFFFFFFFFFFFFFFF AND PUSH20 0xFFFFFFFFFFFFFFFFFFFFFFFFFFFFFFFFFFFFFFFF AND DUP2 MSTORE PUSH1 0x20 ADD SWAP1 PUSH1 0x1 ADD SWAP1 DUP1 DUP4 GT PUSH3 0x1EE JUMPI JUMPDEST POP POP POP POP POP SWAP1 POP SWAP1 JUMP JUMPDEST PUSH1 0x1 PUSH1 0x0 SWAP1 SLOAD SWAP1 PUSH2 0x100 EXP SWAP1 DIV PUSH20 0xFFFFFFFFFFFFFFFFFFFFFFFFFFFFFFFFFFFFFFFF AND PUSH20 0xFFFFFFFFFFFFFFFFFFFFFFFFFFFFFFFFFFFFFFFF AND CALLER PUSH20 0xFFFFFFFFFFFFFFFFFFFFFFFFFFFFFFFFFFFFFFFF AND EQ PUSH3 0x2D6 JUMPI PUSH1 0x40 MLOAD PUSH32 0x8C379A000000000000000000000000000000000000000000000000000000000 DUP2 MSTORE PUSH1 0x4 ADD PUSH3 0x2CD SWAP1 PUSH3 0x93E JUMP JUMPDEST PUSH1 0x40 MLOAD DUP1 SWAP2 SUB SWAP1 REVERT JUMPDEST PUSH1 0x0 DUP3 PUSH1 0x1 PUSH1 0x0 SWAP1 SLOAD SWAP1 PUSH2 0x100 EXP SWAP1 DIV PUSH20 0xFFFFFFFFFFFFFFFFFFFFFFFFFFFFFFFFFFFFFFFF AND PUSH1 0x40 MLOAD PUSH3 0x30A SWAP1 PUSH3 0x410 JUMP JUMPDEST PUSH3 0x317 SWAP3 SWAP2 SWAP1 PUSH3 0xAC3 JUMP JUMPDEST PUSH1 0x40 MLOAD DUP1 SWAP2 SUB SWAP1 PUSH1 0x0 CREATE DUP1 ISZERO DUP1 ISZERO PUSH3 0x334 JUMPI RETURNDATASIZE PUSH1 0x0 DUP1 RETURNDATACOPY RETURNDATASIZE PUSH1 0x0 REVERT JUMPDEST POP SWAP1 POP PUSH1 0x0 DUP2 SWAP1 DUP1 PUSH1 0x1 DUP2 SLOAD ADD DUP1 DUP3 SSTORE DUP1 SWAP2 POP POP PUSH1 0x1 SWAP1 SUB SWAP1 PUSH1 0x0 MSTORE PUSH1 0x20 PUSH1 0x0 KECCAK256 ADD PUSH1 0x0 SWAP1 SWAP2 SWAP1 SWAP2 SWAP1 SWAP2 PUSH2 0x100 EXP DUP2 SLOAD DUP2 PUSH20 0xFFFFFFFFFFFFFFFFFFFFFFFFFFFFFFFFFFFFFFFF MUL NOT AND SWAP1 DUP4 PUSH20 0xFFFFFFFFFFFFFFFFFFFFFFFFFFFFFFFFFFFFFFFF AND MUL OR SWAP1 SSTORE POP PUSH3 0x3A5 DUP3 PUSH3 0x11D JUMP JUMPDEST POP POP POP JUMP JUMPDEST PUSH1 0x0 DUP2 DUP2 SLOAD DUP2 LT PUSH3 0x3BB JUMPI PUSH1 0x0 DUP1 REVERT JUMPDEST SWAP1 PUSH1 0x0 MSTORE PUSH1 0x20 PUSH1 0x0 KECCAK256 ADD PUSH1 0x0 SWAP2 POP SLOAD SWAP1 PUSH2 0x100 EXP SWAP1 DIV PUSH20 0xFFFFFFFFFFFFFFFFFFFFFFFFFFFFFFFFFFFFFFFF AND DUP2 JUMP JUMPDEST PUSH1 0x1 PUSH1 0x0 SWAP1 SLOAD SWAP1 PUSH2 0x100 EXP SWAP1 DIV PUSH20 0xFFFFFFFFFFFFFFFFFFFFFFFFFFFFFFFFFFFFFFFF AND DUP2 JUMP JUMPDEST PUSH2 0xF1A DUP1 PUSH3 0xAF8 DUP4 CODECOPY ADD SWAP1 JUMP JUMPDEST PUSH1 0x0 PUSH1 0x40 MLOAD SWAP1 POP SWAP1 JUMP JUMPDEST PUSH1 0x0 DUP1 REVERT JUMPDEST PUSH1 0x0 DUP1 REVERT JUMPDEST PUSH1 0x0 DUP2 SWAP1 POP SWAP2 SWAP1 POP JUMP JUMPDEST PUSH3 0x447 DUP2 PUSH3 0x432 JUMP JUMPDEST DUP2 EQ PUSH3 0x453 JUMPI PUSH1 0x0 DUP1 REVERT JUMPDEST POP JUMP JUMPDEST PUSH1 0x0 DUP2 CALLDATALOAD SWAP1 POP PUSH3 0x467 DUP2 PUSH3 0x43C JUMP JUMPDEST SWAP3 SWAP2 POP POP JUMP JUMPDEST PUSH1 0x0 PUSH1 0x20 DUP3 DUP5 SUB SLT ISZERO PUSH3 0x486 JUMPI PUSH3 0x485 PUSH3 0x428 JUMP JUMPDEST JUMPDEST PUSH1 0x0 PUSH3 0x496 DUP5 DUP3 DUP6 ADD PUSH3 0x456 JUMP JUMPDEST SWAP2 POP POP SWAP3 SWAP2 POP POP JUMP JUMPDEST PUSH1 0x0 DUP2 MLOAD SWAP1 POP SWAP2 SWAP1 POP JUMP JUMPDEST PUSH1 0x0 DUP3 DUP3 MSTORE PUSH1 0x20 DUP3 ADD SWAP1 POP SWAP3 SWAP2 POP POP JUMP JUMPDEST PUSH1 0x0 DUP2 SWAP1 POP PUSH1 0x20 DUP3 ADD SWAP1 POP SWAP2 SWAP1 POP JUMP JUMPDEST PUSH1 0x0 PUSH20 0xFFFFFFFFFFFFFFFFFFFFFFFFFFFFFFFFFFFFFFFF DUP3 AND SWAP1 POP SWAP2 SWAP1 POP JUMP JUMPDEST PUSH1 0x0 PUSH3 0x4F8 DUP3 PUSH3 0x4CB JUMP JUMPDEST SWAP1 POP SWAP2 SWAP1 POP JUMP JUMPDEST PUSH3 0x50A DUP2 PUSH3 0x4EB JUMP JUMPDEST DUP3 MSTORE POP POP JUMP JUMPDEST PUSH1 0x0 PUSH3 0x51E DUP4 DUP4 PUSH3 0x4FF JUMP JUMPDEST PUSH1 0x20 DUP4 ADD SWAP1 POP SWAP3 SWAP2 POP POP JUMP JUMPDEST PUSH1 0x0 PUSH1 0x20 DUP3 ADD SWAP1 POP SWAP2 SWAP1 POP JUMP JUMPDEST PUSH1 0x0 PUSH3 0x544 DUP3 PUSH3 0x49F JUMP JUMPDEST PUSH3 0x550 DUP2 DUP6 PUSH3 0x4AA JUMP JUMPDEST SWAP4 POP PUSH3 0x55D DUP4 PUSH3 0x4BB JUMP JUMPDEST DUP1 PUSH1 0x0 JUMPDEST DUP4 DUP2 LT ISZERO PUSH3 0x594 JUMPI DUP2 MLOAD PUSH3 0x578 DUP9 DUP3 PUSH3 0x510 JUMP JUMPDEST SWAP8 POP PUSH3 0x585 DUP4 PUSH3 0x52A JUMP JUMPDEST SWAP3 POP POP PUSH1 0x1 DUP2 ADD SWAP1 POP PUSH3 0x561 JUMP JUMPDEST POP DUP6 SWAP4 POP POP POP POP SWAP3 SWAP2 POP POP JUMP JUMPDEST PUSH1 0x0 PUSH1 0x20 DUP3 ADD SWAP1 POP DUP2 DUP2 SUB PUSH1 0x0 DUP4 ADD MSTORE PUSH3 0x5BD DUP2 DUP5 PUSH3 0x537 JUMP JUMPDEST SWAP1 POP SWAP3 SWAP2 POP POP JUMP JUMPDEST PUSH1 0x0 DUP1 REVERT JUMPDEST PUSH1 0x0 PUSH1 0x1F NOT PUSH1 0x1F DUP4 ADD AND SWAP1 POP SWAP2 SWAP1 POP JUMP JUMPDEST PUSH32 0x4E487B7100000000000000000000000000000000000000000000000000000000 PUSH1 0x0 MSTORE PUSH1 0x41 PUSH1 0x4 MSTORE PUSH1 0x24 PUSH1 0x0 REVERT JUMPDEST PUSH3 0x615 DUP3 PUSH3 0x5CA JUMP JUMPDEST DUP2 ADD DUP2 DUP2 LT PUSH8 0xFFFFFFFFFFFFFFFF DUP3 GT OR ISZERO PUSH3 0x637 JUMPI PUSH3 0x636 PUSH3 0x5DB JUMP JUMPDEST JUMPDEST DUP1 PUSH1 0x40 MSTORE POP POP POP JUMP JUMPDEST PUSH1 0x0 PUSH3 0x64C PUSH3 0x41E JUMP JUMPDEST SWAP1 POP PUSH3 0x65A DUP3 DUP3 PUSH3 0x60A JUMP JUMPDEST SWAP2 SWAP1 POP JUMP JUMPDEST PUSH1 0x0 PUSH8 0xFFFFFFFFFFFFFFFF DUP3 GT ISZERO PUSH3 0x67D JUMPI PUSH3 0x67C PUSH3 0x5DB JUMP JUMPDEST JUMPDEST PUSH1 0x20 DUP3 MUL SWAP1 POP PUSH1 0x20 DUP2 ADD SWAP1 POP SWAP2 SWAP1 POP JUMP JUMPDEST PUSH1 0x0 DUP1 REVERT JUMPDEST PUSH1 0x0 DUP1 REVERT JUMPDEST PUSH1 0x0 PUSH8 0xFFFFFFFFFFFFFFFF DUP3 GT ISZERO PUSH3 0x6B6 JUMPI PUSH3 0x6B5 PUSH3 0x5DB JUMP JUMPDEST JUMPDEST PUSH3 0x6C1 DUP3 PUSH3 0x5CA JUMP JUMPDEST SWAP1 POP PUSH1 0x20 DUP2 ADD SWAP1 POP SWAP2 SWAP1 POP JUMP JUMPDEST DUP3 DUP2 DUP4 CALLDATACOPY PUSH1 0x0 DUP4 DUP4 ADD MSTORE POP POP POP JUMP JUMPDEST PUSH1 0x0 PUSH3 0x6F4 PUSH3 0x6EE DUP5 PUSH3 0x698 JUMP JUMPDEST PUSH3 0x640 JUMP JUMPDEST SWAP1 POP DUP3 DUP2 MSTORE PUSH1 0x20 DUP2 ADD DUP5 DUP5 DUP5 ADD GT ISZERO PUSH3 0x713 JUMPI PUSH3 0x712 PUSH3 0x693 JUMP JUMPDEST JUMPDEST PUSH3 0x720 DUP5 DUP3 DUP6 PUSH3 0x6CE JUMP JUMPDEST POP SWAP4 SWAP3 POP POP POP JUMP JUMPDEST PUSH1 0x0 DUP3 PUSH1 0x1F DUP4 ADD SLT PUSH3 0x740 JUMPI PUSH3 0x73F PUSH3 0x5C5 JUMP JUMPDEST JUMPDEST DUP2 CALLDATALOAD PUSH3 0x752 DUP5 DUP3 PUSH1 0x20 DUP7 ADD PUSH3 0x6DD JUMP JUMPDEST SWAP2 POP POP SWAP3 SWAP2 POP POP JUMP JUMPDEST PUSH1 0x0 PUSH3 0x772 PUSH3 0x76C DUP5 PUSH3 0x65F JUMP JUMPDEST PUSH3 0x640 JUMP JUMPDEST SWAP1 POP DUP1 DUP4 DUP3 MSTORE PUSH1 0x20 DUP3 ADD SWAP1 POP PUSH1 0x20 DUP5 MUL DUP4 ADD DUP6 DUP2 GT ISZERO PUSH3 0x798 JUMPI PUSH3 0x797 PUSH3 0x68E JUMP JUMPDEST JUMPDEST DUP4 JUMPDEST DUP2 DUP2 LT ISZERO PUSH3 0x7E6 JUMPI DUP1 CALLDATALOAD PUSH8 0xFFFFFFFFFFFFFFFF DUP2 GT ISZERO PUSH3 0x7C1 JUMPI PUSH3 0x7C0 PUSH3 0x5C5 JUMP JUMPDEST JUMPDEST DUP1 DUP7 ADD PUSH3 0x7D0 DUP10 DUP3 PUSH3 0x728 JUMP JUMPDEST DUP6 MSTORE PUSH1 0x20 DUP6 ADD SWAP5 POP POP POP PUSH1 0x20 DUP2 ADD SWAP1 POP PUSH3 0x79A JUMP JUMPDEST POP POP POP SWAP4 SWAP3 POP POP POP JUMP JUMPDEST PUSH1 0x0 DUP3 PUSH1 0x1F DUP4 ADD SLT PUSH3 0x808 JUMPI PUSH3 0x807 PUSH3 0x5C5 JUMP JUMPDEST JUMPDEST DUP2 CALLDATALOAD PUSH3 0x81A DUP5 DUP3 PUSH1 0x20 DUP7 ADD PUSH3 0x75B JUMP JUMPDEST SWAP2 POP POP SWAP3 SWAP2 POP POP JUMP JUMPDEST PUSH1 0x0 DUP1 PUSH1 0x40 DUP4 DUP6 SUB SLT ISZERO PUSH3 0x83D JUMPI PUSH3 0x83C PUSH3 0x428 JUMP JUMPDEST JUMPDEST PUSH1 0x0 DUP4 ADD CALLDATALOAD PUSH8 0xFFFFFFFFFFFFFFFF DUP2 GT ISZERO PUSH3 0x85E JUMPI PUSH3 0x85D PUSH3 0x42D JUMP JUMPDEST JUMPDEST PUSH3 0x86C DUP6 DUP3 DUP7 ADD PUSH3 0x7F0 JUMP JUMPDEST SWAP3 POP POP PUSH1 0x20 PUSH3 0x87F DUP6 DUP3 DUP7 ADD PUSH3 0x456 JUMP JUMPDEST SWAP2 POP POP SWAP3 POP SWAP3 SWAP1 POP JUMP JUMPDEST PUSH3 0x894 DUP2 PUSH3 0x4EB JUMP JUMPDEST DUP3 MSTORE POP POP JUMP JUMPDEST PUSH1 0x0 PUSH1 0x20 DUP3 ADD SWAP1 POP PUSH3 0x8B1 PUSH1 0x0 DUP4 ADD DUP5 PUSH3 0x889 JUMP JUMPDEST SWAP3 SWAP2 POP POP JUMP JUMPDEST PUSH1 0x0 DUP3 DUP3 MSTORE PUSH1 0x20 DUP3 ADD SWAP1 POP SWAP3 SWAP2 POP POP JUMP JUMPDEST PUSH32 0x4F6E6C79207468652061646D696E2063616E2061636365737320746869732066 PUSH1 0x0 DUP3 ADD MSTORE PUSH32 0x756E6374696F6E00000000000000000000000000000000000000000000000000 PUSH1 0x20 DUP3 ADD MSTORE POP JUMP JUMPDEST PUSH1 0x0 PUSH3 0x926 PUSH1 0x27 DUP4 PUSH3 0x8B7 JUMP JUMPDEST SWAP2 POP PUSH3 0x933 DUP3 PUSH3 0x8C8 JUMP JUMPDEST PUSH1 0x40 DUP3 ADD SWAP1 POP SWAP2 SWAP1 POP JUMP JUMPDEST PUSH1 0x0 PUSH1 0x20 DUP3 ADD SWAP1 POP DUP2 DUP2 SUB PUSH1 0x0 DUP4 ADD MSTORE PUSH3 0x959 DUP2 PUSH3 0x917 JUMP JUMPDEST SWAP1 POP SWAP2 SWAP1 POP JUMP JUMPDEST PUSH1 0x0 DUP2 MLOAD SWAP1 POP SWAP2 SWAP1 POP JUMP JUMPDEST PUSH1 0x0 DUP3 DUP3 MSTORE PUSH1 0x20 DUP3 ADD SWAP1 POP SWAP3 SWAP2 POP POP JUMP JUMPDEST PUSH1 0x0 DUP2 SWAP1 POP PUSH1 0x20 DUP3 ADD SWAP1 POP SWAP2 SWAP1 POP JUMP JUMPDEST PUSH1 0x0 DUP2 MLOAD SWAP1 POP SWAP2 SWAP1 POP JUMP JUMPDEST PUSH1 0x0 DUP3 DUP3 MSTORE PUSH1 0x20 DUP3 ADD SWAP1 POP SWAP3 SWAP2 POP POP JUMP JUMPDEST PUSH1 0x0 JUMPDEST DUP4 DUP2 LT ISZERO PUSH3 0x9C8 JUMPI DUP1 DUP3 ADD MLOAD DUP2 DUP5 ADD MSTORE PUSH1 0x20 DUP2 ADD SWAP1 POP PUSH3 0x9AB JUMP JUMPDEST DUP4 DUP2 GT ISZERO PUSH3 0x9D8 JUMPI PUSH1 0x0 DUP5 DUP5 ADD MSTORE JUMPDEST POP POP POP POP JUMP JUMPDEST PUSH1 0x0 PUSH3 0x9EB DUP3 PUSH3 0x98C JUMP JUMPDEST PUSH3 0x9F7 DUP2 DUP6 PUSH3 0x997 JUMP JUMPDEST SWAP4 POP PUSH3 0xA09 DUP2 DUP6 PUSH1 0x20 DUP7 ADD PUSH3 0x9A8 JUMP JUMPDEST PUSH3 0xA14 DUP2 PUSH3 0x5CA JUMP JUMPDEST DUP5 ADD SWAP2 POP POP SWAP3 SWAP2 POP POP JUMP JUMPDEST PUSH1 0x0 PUSH3 0xA2D DUP4 DUP4 PUSH3 0x9DE JUMP JUMPDEST SWAP1 POP SWAP3 SWAP2 POP POP JUMP JUMPDEST PUSH1 0x0 PUSH1 0x20 DUP3 ADD SWAP1 POP SWAP2 SWAP1 POP JUMP JUMPDEST PUSH1 0x0 PUSH3 0xA4F DUP3 PUSH3 0x960 JUMP JUMPDEST PUSH3 0xA5B DUP2 DUP6 PUSH3 0x96B JUMP JUMPDEST SWAP4 POP DUP4 PUSH1 0x20 DUP3 MUL DUP6 ADD PUSH3 0xA6F DUP6 PUSH3 0x97C JUMP JUMPDEST DUP1 PUSH1 0x0 JUMPDEST DUP6 DUP2 LT ISZERO PUSH3 0xAB1 JUMPI DUP5 DUP5 SUB DUP10 MSTORE DUP2 MLOAD PUSH3 0xA8F DUP6 DUP3 PUSH3 0xA1F JUMP JUMPDEST SWAP5 POP PUSH3 0xA9C DUP4 PUSH3 0xA35 JUMP JUMPDEST SWAP3 POP PUSH1 0x20 DUP11 ADD SWAP10 POP POP PUSH1 0x1 DUP2 ADD SWAP1 POP PUSH3 0xA73 JUMP JUMPDEST POP DUP3 SWAP8 POP DUP8 SWAP6 POP POP POP POP POP POP SWAP3 SWAP2 POP POP JUMP JUMPDEST PUSH1 0x0 PUSH1 0x40 DUP3 ADD SWAP1 POP DUP2 DUP2 SUB PUSH1 0x0 DUP4 ADD MSTORE PUSH3 0xADF DUP2 DUP6 PUSH3 0xA42 JUMP JUMPDEST SWAP1 POP PUSH3 0xAF0 PUSH1 0x20 DUP4 ADD DUP5 PUSH3 0x889 JUMP JUMPDEST SWAP4 SWAP3 POP POP POP JUMP INVALID PUSH1 0x80 PUSH1 0x40 MSTORE CALLVALUE DUP1 ISZERO PUSH3 0x11 JUMPI PUSH1 0x0 DUP1 REVERT JUMPDEST POP PUSH1 0x40 MLOAD PUSH3 0xF1A CODESIZE SUB DUP1 PUSH3 0xF1A DUP4 CODECOPY DUP2 DUP2 ADD PUSH1 0x40 MSTORE DUP2 ADD SWAP1 PUSH3 0x37 SWAP2 SWAP1 PUSH3 0x4CB JUMP JUMPDEST DUP1 PUSH1 0x0 DUP1 PUSH2 0x100 EXP DUP2 SLOAD DUP2 PUSH20 0xFFFFFFFFFFFFFFFFFFFFFFFFFFFFFFFFFFFFFFFF MUL NOT AND SWAP1 DUP4 PUSH20 0xFFFFFFFFFFFFFFFFFFFFFFFFFFFFFFFFFFFFFFFF AND MUL OR SWAP1 SSTORE POP PUSH1 0x0 JUMPDEST DUP3 MLOAD DUP2 LT ISZERO PUSH3 0x10C JUMPI PUSH1 0x40 MLOAD DUP1 PUSH1 0x40 ADD PUSH1 0x40 MSTORE DUP1 DUP5 DUP4 DUP2 MLOAD DUP2 LT PUSH3 0xA5 JUMPI PUSH3 0xA4 PUSH3 0x531 JUMP JUMPDEST JUMPDEST PUSH1 0x20 MUL PUSH1 0x20 ADD ADD MLOAD DUP2 MSTORE PUSH1 0x20 ADD PUSH1 0x0 DUP2 MSTORE POP PUSH1 0x2 PUSH1 0x0 DUP4 DUP2 MSTORE PUSH1 0x20 ADD SWAP1 DUP2 MSTORE PUSH1 0x20 ADD PUSH1 0x0 KECCAK256 PUSH1 0x0 DUP3 ADD MLOAD DUP2 PUSH1 0x0 ADD SWAP1 DUP1 MLOAD SWAP1 PUSH1 0x20 ADD SWAP1 PUSH3 0xE8 SWAP3 SWAP2 SWAP1 PUSH3 0x11D JUMP JUMPDEST POP PUSH1 0x20 DUP3 ADD MLOAD DUP2 PUSH1 0x1 ADD SSTORE SWAP1 POP POP DUP1 DUP1 PUSH3 0x103 SWAP1 PUSH3 0x599 JUMP JUMPDEST SWAP2 POP POP PUSH3 0x7A JUMP JUMPDEST POP DUP2 MLOAD PUSH1 0x4 DUP2 SWAP1 SSTORE POP POP POP PUSH3 0x64C JUMP JUMPDEST DUP3 DUP1 SLOAD PUSH3 0x12B SWAP1 PUSH3 0x616 JUMP JUMPDEST SWAP1 PUSH1 0x0 MSTORE PUSH1 0x20 PUSH1 0x0 KECCAK256 SWAP1 PUSH1 0x1F ADD PUSH1 0x20 SWAP1 DIV DUP2 ADD SWAP3 DUP3 PUSH3 0x14F JUMPI PUSH1 0x0 DUP6 SSTORE PUSH3 0x19B JUMP JUMPDEST DUP3 PUSH1 0x1F LT PUSH3 0x16A JUMPI DUP1 MLOAD PUSH1 0xFF NOT AND DUP4 DUP1 ADD OR DUP6 SSTORE PUSH3 0x19B JUMP JUMPDEST DUP3 DUP1 ADD PUSH1 0x1 ADD DUP6 SSTORE DUP3 ISZERO PUSH3 0x19B JUMPI SWAP2 DUP3 ADD JUMPDEST DUP3 DUP2 GT ISZERO PUSH3 0x19A JUMPI DUP3 MLOAD DUP3 SSTORE SWAP2 PUSH1 0x20 ADD SWAP2 SWAP1 PUSH1 0x1 ADD SWAP1 PUSH3 0x17D JUMP JUMPDEST JUMPDEST POP SWAP1 POP PUSH3 0x1AA SWAP2 SWAP1 PUSH3 0x1AE JUMP JUMPDEST POP SWAP1 JUMP JUMPDEST JUMPDEST DUP1 DUP3 GT ISZERO PUSH3 0x1C9 JUMPI PUSH1 0x0 DUP2 PUSH1 0x0 SWAP1 SSTORE POP PUSH1 0x1 ADD PUSH3 0x1AF JUMP JUMPDEST POP SWAP1 JUMP JUMPDEST PUSH1 0x0 PUSH1 0x40 MLOAD SWAP1 POP SWAP1 JUMP JUMPDEST PUSH1 0x0 DUP1 REVERT JUMPDEST PUSH1 0x0 DUP1 REVERT JUMPDEST PUSH1 0x0 DUP1 REVERT JUMPDEST PUSH1 0x0 PUSH1 0x1F NOT PUSH1 0x1F DUP4 ADD AND SWAP1 POP SWAP2 SWAP1 POP JUMP JUMPDEST PUSH32 0x4E487B7100000000000000000000000000000000000000000000000000000000 PUSH1 0x0 MSTORE PUSH1 0x41 PUSH1 0x4 MSTORE PUSH1 0x24 PUSH1 0x0 REVERT JUMPDEST PUSH3 0x231 DUP3 PUSH3 0x1E6 JUMP JUMPDEST DUP2 ADD DUP2 DUP2 LT PUSH8 0xFFFFFFFFFFFFFFFF DUP3 GT OR ISZERO PUSH3 0x253 JUMPI PUSH3 0x252 PUSH3 0x1F7 JUMP JUMPDEST JUMPDEST DUP1 PUSH1 0x40 MSTORE POP POP POP JUMP JUMPDEST PUSH1 0x0 PUSH3 0x268 PUSH3 0x1CD JUMP JUMPDEST SWAP1 POP PUSH3 0x276 DUP3 DUP3 PUSH3 0x226 JUMP JUMPDEST SWAP2 SWAP1 POP JUMP JUMPDEST PUSH1 0x0 PUSH8 0xFFFFFFFFFFFFFFFF DUP3 GT ISZERO PUSH3 0x299 JUMPI PUSH3 0x298 PUSH3 0x1F7 JUMP JUMPDEST JUMPDEST PUSH1 0x20 DUP3 MUL SWAP1 POP PUSH1 0x20 DUP2 ADD SWAP1 POP SWAP2 SWAP1 POP JUMP JUMPDEST PUSH1 0x0 DUP1 REVERT JUMPDEST PUSH1 0x0 DUP1 REVERT JUMPDEST PUSH1 0x0 PUSH8 0xFFFFFFFFFFFFFFFF DUP3 GT ISZERO PUSH3 0x2D2 JUMPI PUSH3 0x2D1 PUSH3 0x1F7 JUMP JUMPDEST JUMPDEST PUSH3 0x2DD DUP3 PUSH3 0x1E6 JUMP JUMPDEST SWAP1 POP PUSH1 0x20 DUP2 ADD SWAP1 POP SWAP2 SWAP1 POP JUMP JUMPDEST PUSH1 0x0 JUMPDEST DUP4 DUP2 LT ISZERO PUSH3 0x30A JUMPI DUP1 DUP3 ADD MLOAD DUP2 DUP5 ADD MSTORE PUSH1 0x20 DUP2 ADD SWAP1 POP PUSH3 0x2ED JUMP JUMPDEST DUP4 DUP2 GT ISZERO PUSH3 0x31A JUMPI PUSH1 0x0 DUP5 DUP5 ADD MSTORE JUMPDEST POP POP POP POP JUMP JUMPDEST PUSH1 0x0 PUSH3 0x337 PUSH3 0x331 DUP5 PUSH3 0x2B4 JUMP JUMPDEST PUSH3 0x25C JUMP JUMPDEST SWAP1 POP DUP3 DUP2 MSTORE PUSH1 0x20 DUP2 ADD DUP5 DUP5 DUP5 ADD GT ISZERO PUSH3 0x356 JUMPI PUSH3 0x355 PUSH3 0x2AF JUMP JUMPDEST JUMPDEST PUSH3 0x363 DUP5 DUP3 DUP6 PUSH3 0x2EA JUMP JUMPDEST POP SWAP4 SWAP3 POP POP POP JUMP JUMPDEST PUSH1 0x0 DUP3 PUSH1 0x1F DUP4 ADD SLT PUSH3 0x383 JUMPI PUSH3 0x382 PUSH3 0x1E1 JUMP JUMPDEST JUMPDEST DUP2 MLOAD PUSH3 0x395 DUP5 DUP3 PUSH1 0x20 DUP7 ADD PUSH3 0x320 JUMP JUMPDEST SWAP2 POP POP SWAP3 SWAP2 POP POP JUMP JUMPDEST PUSH1 0x0 PUSH3 0x3B5 PUSH3 0x3AF DUP5 PUSH3 0x27B JUMP JUMPDEST PUSH3 0x25C JUMP JUMPDEST SWAP1 POP DUP1 DUP4 DUP3 MSTORE PUSH1 0x20 DUP3 ADD SWAP1 POP PUSH1 0x20 DUP5 MUL DUP4 ADD DUP6 DUP2 GT ISZERO PUSH3 0x3DB JUMPI PUSH3 0x3DA PUSH3 0x2AA JUMP JUMPDEST JUMPDEST DUP4 JUMPDEST DUP2 DUP2 LT ISZERO PUSH3 0x429 JUMPI DUP1 MLOAD PUSH8 0xFFFFFFFFFFFFFFFF DUP2 GT ISZERO PUSH3 0x404 JUMPI PUSH3 0x403 PUSH3 0x1E1 JUMP JUMPDEST JUMPDEST DUP1 DUP7 ADD PUSH3 0x413 DUP10 DUP3 PUSH3 0x36B JUMP JUMPDEST DUP6 MSTORE PUSH1 0x20 DUP6 ADD SWAP5 POP POP POP PUSH1 0x20 DUP2 ADD SWAP1 POP PUSH3 0x3DD JUMP JUMPDEST POP POP POP SWAP4 SWAP3 POP POP POP JUMP JUMPDEST PUSH1 0x0 DUP3 PUSH1 0x1F DUP4 ADD SLT PUSH3 0x44B JUMPI PUSH3 0x44A PUSH3 0x1E1 JUMP JUMPDEST JUMPDEST DUP2 MLOAD PUSH3 0x45D DUP5 DUP3 PUSH1 0x20 DUP7 ADD PUSH3 0x39E JUMP JUMPDEST SWAP2 POP POP SWAP3 SWAP2 POP POP JUMP JUMPDEST PUSH1 0x0 PUSH20 0xFFFFFFFFFFFFFFFFFFFFFFFFFFFFFFFFFFFFFFFF DUP3 AND SWAP1 POP SWAP2 SWAP1 POP JUMP JUMPDEST PUSH1 0x0 PUSH3 0x493 DUP3 PUSH3 0x466 JUMP JUMPDEST SWAP1 POP SWAP2 SWAP1 POP JUMP JUMPDEST PUSH3 0x4A5 DUP2 PUSH3 0x486 JUMP JUMPDEST DUP2 EQ PUSH3 0x4B1 JUMPI PUSH1 0x0 DUP1 REVERT JUMPDEST POP JUMP JUMPDEST PUSH1 0x0 DUP2 MLOAD SWAP1 POP PUSH3 0x4C5 DUP2 PUSH3 0x49A JUMP JUMPDEST SWAP3 SWAP2 POP POP JUMP JUMPDEST PUSH1 0x0 DUP1 PUSH1 0x40 DUP4 DUP6 SUB SLT ISZERO PUSH3 0x4E5 JUMPI PUSH3 0x4E4 PUSH3 0x1D7 JUMP JUMPDEST JUMPDEST PUSH1 0x0 DUP4 ADD MLOAD PUSH8 0xFFFFFFFFFFFFFFFF DUP2 GT ISZERO PUSH3 0x506 JUMPI PUSH3 0x505 PUSH3 0x1DC JUMP JUMPDEST JUMPDEST PUSH3 0x514 DUP6 DUP3 DUP7 ADD PUSH3 0x433 JUMP JUMPDEST SWAP3 POP POP PUSH1 0x20 PUSH3 0x527 DUP6 DUP3 DUP7 ADD PUSH3 0x4B4 JUMP JUMPDEST SWAP2 POP POP SWAP3 POP SWAP3 SWAP1 POP JUMP JUMPDEST PUSH32 0x4E487B7100000000000000000000000000000000000000000000000000000000 PUSH1 0x0 MSTORE PUSH1 0x32 PUSH1 0x4 MSTORE PUSH1 0x24 PUSH1 0x0 REVERT JUMPDEST PUSH32 0x4E487B7100000000000000000000000000000000000000000000000000000000 PUSH1 0x0 MSTORE PUSH1 0x11 PUSH1 0x4 MSTORE PUSH1 0x24 PUSH1 0x0 REVERT JUMPDEST PUSH1 0x0 DUP2 SWAP1 POP SWAP2 SWAP1 POP JUMP JUMPDEST PUSH1 0x0 PUSH3 0x5A6 DUP3 PUSH3 0x58F JUMP JUMPDEST SWAP2 POP PUSH32 0xFFFFFFFFFFFFFFFFFFFFFFFFFFFFFFFFFFFFFFFFFFFFFFFFFFFFFFFFFFFFFFFF DUP3 EQ ISZERO PUSH3 0x5DC JUMPI PUSH3 0x5DB PUSH3 0x560 JUMP JUMPDEST JUMPDEST PUSH1 0x1 DUP3 ADD SWAP1 POP SWAP2 SWAP1 POP JUMP JUMPDEST PUSH32 0x4E487B7100000000000000000000000000000000000000000000000000000000 PUSH1 0x0 MSTORE PUSH1 0x22 PUSH1 0x4 MSTORE PUSH1 0x24 PUSH1 0x0 REVERT JUMPDEST PUSH1 0x0 PUSH1 0x2 DUP3 DIV SWAP1 POP PUSH1 0x1 DUP3 AND DUP1 PUSH3 0x62F JUMPI PUSH1 0x7F DUP3 AND SWAP2 POP JUMPDEST PUSH1 0x20 DUP3 LT DUP2 EQ ISZERO PUSH3 0x646 JUMPI PUSH3 0x645 PUSH3 0x5E7 JUMP JUMPDEST JUMPDEST POP SWAP2 SWAP1 POP JUMP JUMPDEST PUSH2 0x8BE DUP1 PUSH3 0x65C PUSH1 0x0 CODECOPY PUSH1 0x0 RETURN INVALID PUSH1 0x80 PUSH1 0x40 MSTORE CALLVALUE DUP1 ISZERO PUSH2 0x10 JUMPI PUSH1 0x0 DUP1 REVERT JUMPDEST POP PUSH1 0x4 CALLDATASIZE LT PUSH2 0x88 JUMPI PUSH1 0x0 CALLDATALOAD PUSH1 0xE0 SHR DUP1 PUSH4 0xB13C744B GT PUSH2 0x5B JUMPI DUP1 PUSH4 0xB13C744B EQ PUSH2 0x115 JUMPI DUP1 PUSH4 0xD28178D7 EQ PUSH2 0x146 JUMPI DUP1 PUSH4 0xE2BA53F0 EQ PUSH2 0x164 JUMPI DUP1 PUSH4 0xF851A440 EQ PUSH2 0x182 JUMPI PUSH2 0x88 JUMP JUMPDEST DUP1 PUSH4 0x121B93F EQ PUSH2 0x8D JUMPI DUP1 PUSH4 0x42169E48 EQ PUSH2 0xA9 JUMPI DUP1 PUSH4 0xA3EC138D EQ PUSH2 0xC7 JUMPI DUP1 PUSH4 0xA9A981A3 EQ PUSH2 0xF7 JUMPI JUMPDEST PUSH1 0x0 DUP1 REVERT JUMPDEST PUSH2 0xA7 PUSH1 0x4 DUP1 CALLDATASIZE SUB DUP2 ADD SWAP1 PUSH2 0xA2 SWAP2 SWAP1 PUSH2 0x516 JUMP JUMPDEST PUSH2 0x1A0 JUMP JUMPDEST STOP JUMPDEST PUSH2 0xB1 PUSH2 0x2CB JUMP JUMPDEST PUSH1 0x40 MLOAD PUSH2 0xBE SWAP2 SWAP1 PUSH2 0x552 JUMP JUMPDEST PUSH1 0x40 MLOAD DUP1 SWAP2 SUB SWAP1 RETURN JUMPDEST PUSH2 0xE1 PUSH1 0x4 DUP1 CALLDATASIZE SUB DUP2 ADD SWAP1 PUSH2 0xDC SWAP2 SWAP1 PUSH2 0x5CB JUMP JUMPDEST PUSH2 0x2D1 JUMP JUMPDEST PUSH1 0x40 MLOAD PUSH2 0xEE SWAP2 SWAP1 PUSH2 0x613 JUMP JUMPDEST PUSH1 0x40 MLOAD DUP1 SWAP2 SUB SWAP1 RETURN JUMPDEST PUSH2 0xFF PUSH2 0x2F1 JUMP JUMPDEST PUSH1 0x40 MLOAD PUSH2 0x10C SWAP2 SWAP1 PUSH2 0x552 JUMP JUMPDEST PUSH1 0x40 MLOAD DUP1 SWAP2 SUB SWAP1 RETURN JUMPDEST PUSH2 0x12F PUSH1 0x4 DUP1 CALLDATASIZE SUB DUP2 ADD SWAP1 PUSH2 0x12A SWAP2 SWAP1 PUSH2 0x516 JUMP JUMPDEST PUSH2 0x2F7 JUMP JUMPDEST PUSH1 0x40 MLOAD PUSH2 0x13D SWAP3 SWAP2 SWAP1 PUSH2 0x6C7 JUMP JUMPDEST PUSH1 0x40 MLOAD DUP1 SWAP2 SUB SWAP1 RETURN JUMPDEST PUSH2 0x14E PUSH2 0x3A3 JUMP JUMPDEST PUSH1 0x40 MLOAD PUSH2 0x15B SWAP2 SWAP1 PUSH2 0x552 JUMP JUMPDEST PUSH1 0x40 MLOAD DUP1 SWAP2 SUB SWAP1 RETURN JUMPDEST PUSH2 0x16C PUSH2 0x40A JUMP JUMPDEST PUSH1 0x40 MLOAD PUSH2 0x179 SWAP2 SWAP1 PUSH2 0x6F7 JUMP JUMPDEST PUSH1 0x40 MLOAD DUP1 SWAP2 SUB SWAP1 RETURN JUMPDEST PUSH2 0x18A PUSH2 0x4B7 JUMP JUMPDEST PUSH1 0x40 MLOAD PUSH2 0x197 SWAP2 SWAP1 PUSH2 0x728 JUMP JUMPDEST PUSH1 0x40 MLOAD DUP1 SWAP2 SUB SWAP1 RETURN JUMPDEST PUSH1 0x1 PUSH1 0x0 CALLER PUSH20 0xFFFFFFFFFFFFFFFFFFFFFFFFFFFFFFFFFFFFFFFF AND PUSH20 0xFFFFFFFFFFFFFFFFFFFFFFFFFFFFFFFFFFFFFFFF AND DUP2 MSTORE PUSH1 0x20 ADD SWAP1 DUP2 MSTORE PUSH1 0x20 ADD PUSH1 0x0 KECCAK256 PUSH1 0x0 SWAP1 SLOAD SWAP1 PUSH2 0x100 EXP SWAP1 DIV PUSH1 0xFF AND ISZERO PUSH2 0x22D JUMPI PUSH1 0x40 MLOAD PUSH32 0x8C379A000000000000000000000000000000000000000000000000000000000 DUP2 MSTORE PUSH1 0x4 ADD PUSH2 0x224 SWAP1 PUSH2 0x78F JUMP JUMPDEST PUSH1 0x40 MLOAD DUP1 SWAP2 SUB SWAP1 REVERT JUMPDEST PUSH1 0x1 DUP1 PUSH1 0x0 CALLER PUSH20 0xFFFFFFFFFFFFFFFFFFFFFFFFFFFFFFFFFFFFFFFF AND PUSH20 0xFFFFFFFFFFFFFFFFFFFFFFFFFFFFFFFFFFFFFFFF AND DUP2 MSTORE PUSH1 0x20 ADD SWAP1 DUP2 MSTORE PUSH1 0x20 ADD PUSH1 0x0 KECCAK256 PUSH1 0x0 PUSH2 0x100 EXP DUP2 SLOAD DUP2 PUSH1 0xFF MUL NOT AND SWAP1 DUP4 ISZERO ISZERO MUL OR SWAP1 SSTORE POP PUSH1 0x3 PUSH1 0x0 DUP2 SLOAD DUP1 SWAP3 SWAP2 SWAP1 PUSH2 0x297 SWAP1 PUSH2 0x7DE JUMP JUMPDEST SWAP2 SWAP1 POP SSTORE POP PUSH1 0x2 PUSH1 0x0 DUP3 DUP2 MSTORE PUSH1 0x20 ADD SWAP1 DUP2 MSTORE PUSH1 0x20 ADD PUSH1 0x0 KECCAK256 PUSH1 0x1 ADD PUSH1 0x0 DUP2 SLOAD DUP1 SWAP3 SWAP2 SWAP1 PUSH2 0x2C3 SWAP1 PUSH2 0x7DE JUMP JUMPDEST SWAP2 SWAP1 POP SSTORE POP POP JUMP JUMPDEST PUSH1 0x3 SLOAD DUP2 JUMP JUMPDEST PUSH1 0x1 PUSH1 0x20 MSTORE DUP1 PUSH1 0x0 MSTORE PUSH1 0x40 PUSH1 0x0 KECCAK256 PUSH1 0x0 SWAP2 POP SLOAD SWAP1 PUSH2 0x100 EXP SWAP1 DIV PUSH1 0xFF AND DUP2 JUMP JUMPDEST PUSH1 0x4 SLOAD DUP2 JUMP JUMPDEST PUSH1 0x2 PUSH1 0x20 MSTORE DUP1 PUSH1 0x0 MSTORE PUSH1 0x40 PUSH1 0x0 KECCAK256 PUSH1 0x0 SWAP2 POP SWAP1 POP DUP1 PUSH1 0x0 ADD DUP1 SLOAD PUSH2 0x31A SWAP1 PUSH2 0x856 JUMP JUMPDEST DUP1 PUSH1 0x1F ADD PUSH1 0x20 DUP1 SWAP2 DIV MUL PUSH1 0x20 ADD PUSH1 0x40 MLOAD SWAP1 DUP2 ADD PUSH1 0x40 MSTORE DUP1 SWAP3 SWAP2 SWAP1 DUP2 DUP2 MSTORE PUSH1 0x20 ADD DUP3 DUP1 SLOAD PUSH2 0x346 SWAP1 PUSH2 0x856 JUMP JUMPDEST DUP1 ISZERO PUSH2 0x393 JUMPI DUP1 PUSH1 0x1F LT PUSH2 0x368 JUMPI PUSH2 0x100 DUP1 DUP4 SLOAD DIV MUL DUP4 MSTORE SWAP2 PUSH1 0x20 ADD SWAP2 PUSH2 0x393 JUMP JUMPDEST DUP3 ADD SWAP2 SWAP1 PUSH1 0x0 MSTORE PUSH1 0x20 PUSH1 0x0 KECCAK256 SWAP1 JUMPDEST DUP2 SLOAD DUP2 MSTORE SWAP1 PUSH1 0x1 ADD SWAP1 PUSH1 0x20 ADD DUP1 DUP4 GT PUSH2 0x376 JUMPI DUP3 SWAP1 SUB PUSH1 0x1F AND DUP3 ADD SWAP2 JUMPDEST POP POP POP POP POP SWAP1 DUP1 PUSH1 0x1 ADD SLOAD SWAP1 POP DUP3 JUMP JUMPDEST PUSH1 0x0 DUP1 PUSH1 0x0 SWAP1 POP PUSH1 0x0 JUMPDEST PUSH1 0x4 SLOAD DUP2 LT ISZERO PUSH2 0x405 JUMPI DUP2 PUSH1 0x2 PUSH1 0x0 DUP4 DUP2 MSTORE PUSH1 0x20 ADD SWAP1 DUP2 MSTORE PUSH1 0x20 ADD PUSH1 0x0 KECCAK256 PUSH1 0x1 ADD SLOAD GT ISZERO PUSH2 0x3F2 JUMPI PUSH1 0x2 PUSH1 0x0 DUP3 DUP2 MSTORE PUSH1 0x20 ADD SWAP1 DUP2 MSTORE PUSH1 0x20 ADD PUSH1 0x0 KECCAK256 PUSH1 0x1 ADD SLOAD SWAP2 POP DUP1 SWAP3 POP JUMPDEST DUP1 DUP1 PUSH2 0x3FD SWAP1 PUSH2 0x7DE JUMP JUMPDEST SWAP2 POP POP PUSH2 0x3AD JUMP JUMPDEST POP POP SWAP1 JUMP JUMPDEST PUSH1 0x60 PUSH1 0x2 PUSH1 0x0 PUSH2 0x418 PUSH2 0x3A3 JUMP JUMPDEST DUP2 MSTORE PUSH1 0x20 ADD SWAP1 DUP2 MSTORE PUSH1 0x20 ADD PUSH1 0x0 KECCAK256 PUSH1 0x0 ADD DUP1 SLOAD PUSH2 0x434 SWAP1 PUSH2 0x856 JUMP JUMPDEST DUP1 PUSH1 0x1F ADD PUSH1 0x20 DUP1 SWAP2 DIV MUL PUSH1 0x20 ADD PUSH1 0x40 MLOAD SWAP1 DUP2 ADD PUSH1 0x40 MSTORE DUP1 SWAP3 SWAP2 SWAP1 DUP2 DUP2 MSTORE PUSH1 0x20 ADD DUP3 DUP1 SLOAD PUSH2 0x460 SWAP1 PUSH2 0x856 JUMP JUMPDEST DUP1 ISZERO PUSH2 0x4AD JUMPI DUP1 PUSH1 0x1F LT PUSH2 0x482 JUMPI PUSH2 0x100 DUP1 DUP4 SLOAD DIV MUL DUP4 MSTORE SWAP2 PUSH1 0x20 ADD SWAP2 PUSH2 0x4AD JUMP JUMPDEST DUP3 ADD SWAP2 SWAP1 PUSH1 0x0 MSTORE PUSH1 0x20 PUSH1 0x0 KECCAK256 SWAP1 JUMPDEST DUP2 SLOAD DUP2 MSTORE SWAP1 PUSH1 0x1 ADD SWAP1 PUSH1 0x20 ADD DUP1 DUP4 GT PUSH2 0x490 JUMPI DUP3 SWAP1 SUB PUSH1 0x1F AND DUP3 ADD SWAP2 JUMPDEST POP POP POP POP POP SWAP1 POP SWAP1 JUMP JUMPDEST PUSH1 0x0 DUP1 SLOAD SWAP1 PUSH2 0x100 EXP SWAP1 DIV PUSH20 0xFFFFFFFFFFFFFFFFFFFFFFFFFFFFFFFFFFFFFFFF AND DUP2 JUMP JUMPDEST PUSH1 0x0 DUP1 REVERT JUMPDEST PUSH1 0x0 DUP2 SWAP1 POP SWAP2 SWAP1 POP JUMP JUMPDEST PUSH2 0x4F3 DUP2 PUSH2 0x4E0 JUMP JUMPDEST DUP2 EQ PUSH2 0x4FE JUMPI PUSH1 0x0 DUP1 REVERT JUMPDEST POP JUMP JUMPDEST PUSH1 0x0 DUP2 CALLDATALOAD SWAP1 POP PUSH2 0x510 DUP2 PUSH2 0x4EA JUMP JUMPDEST SWAP3 SWAP2 POP POP JUMP JUMPDEST PUSH1 0x0 PUSH1 0x20 DUP3 DUP5 SUB SLT ISZERO PUSH2 0x52C JUMPI PUSH2 0x52B PUSH2 0x4DB JUMP JUMPDEST JUMPDEST PUSH1 0x0 PUSH2 0x53A DUP5 DUP3 DUP6 ADD PUSH2 0x501 JUMP JUMPDEST SWAP2 POP POP SWAP3 SWAP2 POP POP JUMP JUMPDEST PUSH2 0x54C DUP2 PUSH2 0x4E0 JUMP JUMPDEST DUP3 MSTORE POP POP JUMP JUMPDEST PUSH1 0x0 PUSH1 0x20 DUP3 ADD SWAP1 POP PUSH2 0x567 PUSH1 0x0 DUP4 ADD DUP5 PUSH2 0x543 JUMP JUMPDEST SWAP3 SWAP2 POP POP JUMP JUMPDEST PUSH1 0x0 PUSH20 0xFFFFFFFFFFFFFFFFFFFFFFFFFFFFFFFFFFFFFFFF DUP3 AND SWAP1 POP SWAP2 SWAP1 POP JUMP JUMPDEST PUSH1 0x0 PUSH2 0x598 DUP3 PUSH2 0x56D JUMP JUMPDEST SWAP1 POP SWAP2 SWAP1 POP JUMP JUMPDEST PUSH2 0x5A8 DUP2 PUSH2 0x58D JUMP JUMPDEST DUP2 EQ PUSH2 0x5B3 JUMPI PUSH1 0x0 DUP1 REVERT JUMPDEST POP JUMP JUMPDEST PUSH1 0x0 DUP2 CALLDATALOAD SWAP1 POP PUSH2 0x5C5 DUP2 PUSH2 0x59F JUMP JUMPDEST SWAP3 SWAP2 POP POP JUMP JUMPDEST PUSH1 0x0 PUSH1 0x20 DUP3 DUP5 SUB SLT ISZERO PUSH2 0x5E1 JUMPI PUSH2 0x5E0 PUSH2 0x4DB JUMP JUMPDEST JUMPDEST PUSH1 0x0 PUSH2 0x5EF DUP5 DUP3 DUP6 ADD PUSH2 0x5B6 JUMP JUMPDEST SWAP2 POP POP SWAP3 SWAP2 POP POP JUMP JUMPDEST PUSH1 0x0 DUP2 ISZERO ISZERO SWAP1 POP SWAP2 SWAP1 POP JUMP JUMPDEST PUSH2 0x60D DUP2 PUSH2 0x5F8 JUMP JUMPDEST DUP3 MSTORE POP POP JUMP JUMPDEST PUSH1 0x0 PUSH1 0x20 DUP3 ADD SWAP1 POP PUSH2 0x628 PUSH1 0x0 DUP4 ADD DUP5 PUSH2 0x604 JUMP JUMPDEST SWAP3 SWAP2 POP POP JUMP JUMPDEST PUSH1 0x0 DUP2 MLOAD SWAP1 POP SWAP2 SWAP1 POP JUMP JUMPDEST PUSH1 0x0 DUP3 DUP3 MSTORE PUSH1 0x20 DUP3 ADD SWAP1 POP SWAP3 SWAP2 POP POP JUMP JUMPDEST PUSH1 0x0 JUMPDEST DUP4 DUP2 LT ISZERO PUSH2 0x668 JUMPI DUP1 DUP3 ADD MLOAD DUP2 DUP5 ADD MSTORE PUSH1 0x20 DUP2 ADD SWAP1 POP PUSH2 0x64D JUMP JUMPDEST DUP4 DUP2 GT ISZERO PUSH2 0x677 JUMPI PUSH1 0x0 DUP5 DUP5 ADD MSTORE JUMPDEST POP POP POP POP JUMP JUMPDEST PUSH1 0x0 PUSH1 0x1F NOT PUSH1 0x1F DUP4 ADD AND SWAP1 POP SWAP2 SWAP1 POP JUMP JUMPDEST PUSH1 0x0 PUSH2 0x699 DUP3 PUSH2 0x62E JUMP JUMPDEST PUSH2 0x6A3 DUP2 DUP6 PUSH2 0x639 JUMP JUMPDEST SWAP4 POP PUSH2 0x6B3 DUP2 DUP6 PUSH1 0x20 DUP7 ADD PUSH2 0x64A JUMP JUMPDEST PUSH2 0x6BC DUP2 PUSH2 0x67D JUMP JUMPDEST DUP5 ADD SWAP2 POP POP SWAP3 SWAP2 POP POP JUMP JUMPDEST PUSH1 0x0 PUSH1 0x40 DUP3 ADD SWAP1 POP DUP2 DUP2 SUB PUSH1 0x0 DUP4 ADD MSTORE PUSH2 0x6E1 DUP2 DUP6 PUSH2 0x68E JUMP JUMPDEST SWAP1 POP PUSH2 0x6F0 PUSH1 0x20 DUP4 ADD DUP5 PUSH2 0x543 JUMP JUMPDEST SWAP4 SWAP3 POP POP POP JUMP JUMPDEST PUSH1 0x0 PUSH1 0x20 DUP3 ADD SWAP1 POP DUP2 DUP2 SUB PUSH1 0x0 DUP4 ADD MSTORE PUSH2 0x711 DUP2 DUP5 PUSH2 0x68E JUMP JUMPDEST SWAP1 POP SWAP3 SWAP2 POP POP JUMP JUMPDEST PUSH2 0x722 DUP2 PUSH2 0x58D JUMP JUMPDEST DUP3 MSTORE POP POP JUMP JUMPDEST PUSH1 0x0 PUSH1 0x20 DUP3 ADD SWAP1 POP PUSH2 0x73D PUSH1 0x0 DUP4 ADD DUP5 PUSH2 0x719 JUMP JUMPDEST SWAP3 SWAP2 POP POP JUMP JUMPDEST PUSH32 0x416C726561647920766F7465642E000000000000000000000000000000000000 PUSH1 0x0 DUP3 ADD MSTORE POP JUMP JUMPDEST PUSH1 0x0 PUSH2 0x779 PUSH1 0xE DUP4 PUSH2 0x639 JUMP JUMPDEST SWAP2 POP PUSH2 0x784 DUP3 PUSH2 0x743 JUMP JUMPDEST PUSH1 0x20 DUP3 ADD SWAP1 POP SWAP2 SWAP1 POP JUMP JUMPDEST PUSH1 0x0 PUSH1 0x20 DUP3 ADD SWAP1 POP DUP2 DUP2 SUB PUSH1 0x0 DUP4 ADD MSTORE PUSH2 0x7A8 DUP2 PUSH2 0x76C JUMP JUMPDEST SWAP1 POP SWAP2 SWAP1 POP JUMP JUMPDEST PUSH32 0x4E487B7100000000000000000000000000000000000000000000000000000000 PUSH1 0x0 MSTORE PUSH1 0x11 PUSH1 0x4 MSTORE PUSH1 0x24 PUSH1 0x0 REVERT JUMPDEST PUSH1 0x0 PUSH2 0x7E9 DUP3 PUSH2 0x4E0 JUMP JUMPDEST SWAP2 POP PUSH32 0xFFFFFFFFFFFFFFFFFFFFFFFFFFFFFFFFFFFFFFFFFFFFFFFFFFFFFFFFFFFFFFFF DUP3 EQ ISZERO PUSH2 0x81C JUMPI PUSH2 0x81B PUSH2 0x7AF JUMP JUMPDEST JUMPDEST PUSH1 0x1 DUP3 ADD SWAP1 POP SWAP2 SWAP1 POP JUMP JUMPDEST PUSH32 0x4E487B7100000000000000000000000000000000000000000000000000000000 PUSH1 0x0 MSTORE PUSH1 0x22 PUSH1 0x4 MSTORE PUSH1 0x24 PUSH1 0x0 REVERT JUMPDEST PUSH1 0x0 PUSH1 0x2 DUP3 DIV SWAP1 POP PUSH1 0x1 DUP3 AND DUP1 PUSH2 0x86E JUMPI PUSH1 0x7F DUP3 AND SWAP2 POP JUMPDEST PUSH1 0x20 DUP3 LT DUP2 EQ ISZERO PUSH2 0x882 JUMPI PUSH2 0x881 PUSH2 0x827 JUMP JUMPDEST JUMPDEST POP SWAP2 SWAP1 POP JUMP INVALID LOG2 PUSH5 0x6970667358 0x22 SLT KECCAK256 0x5F SWAP6 GASLIMIT 0xAC 0xAA 0xA8 0x2E 0x2E 0xBE 0x1F JUMPDEST CALLER 0x22 0xB9 LOG2 PUSH10 0xEEAAD1700C04AE8A8989 DELEGATECALL 0xB1 PUSH18 0x6D887E64736F6C634300080B0033A2646970 PUSH7 0x73582212203F5C 0xC8 SELFBALANCE LOG3 0xF9 0xCC 0xB1 EXTCODEHASH EQ KECCAK256 ORIGIN 0xD4 COINBASE STOP PUSH28 0xF202C41FFFB2BAF5E61447BC8BAA54A664736F6C634300080B003300 "}}}